:03000000020EF3FA
:0C0EF300787FE4F6D8FD758145020F3AC7
:101254003F065B4F666D7D077F6F777C395E7971E2
:1012640040FEFDFBF7EFDFBF7F1F1C1F1E1F1E1F6D
:051274001F1E1F1E1FDC
:10120300C100C102C10101390C012D1E01320501CA
:101213003814023407E001210001220001230001F8
:08122300240001250001260052
:100DBF00752BFEE4F53F7543FE752CAAD2A27589FB
:100DCF0001758CFC758A18D2AFD2A9D28CC294E56A
:100DDF002EB40A06E4F52E12113CE542640370426C
:100DEF00F542E53314601814601A14601C14602166
:100DFF001460232405702B120F7F12129C80231274
:100E0F000F7F801E120FFC8019120D1B1212E08033
:100E1F0011120C5B800C121185120E6112135612F7
:100E2F0012FB1211CEE5355403700FAE34AF357C83
:100E3F00017D90120ABDED4C700FAE34AF357C00C2
:100E4F007D64120ABDED4C7004D2008082C2000294
:020E5F000DDEA6
:03000B000210756B
:10107500C0E0C0F0C083C082C0D075D000C000C041
:1010850001C002C003C004C005C006C007758CFCC2
:10109500758A182002080545E545700205443001AA
:1010A50008053DE53D7002053C0542052E052F0569
:1010B500300529E5297002052805311210E11212C3
:1010C5002CD007D006D005D004D003D002D001D053
:0C10D50000D0D0D082D083D0F0D0E03228
:1010E100E54564E87004E5446403704EF544F54554
:1010F1000527E527D3943B4041E4F527052DE52D50
:10110100D3943B4035E4F52D0539E539D3941740A7
:1011110029E4F5390538E53290126C93FFE538D3AF
:101121009F40177538010532E532D3940C400B7599
:0B11310032010535E53570020534225F
:10122C00E53DB4E822E53CB4031DE4F53CF53D0591
:10123C003AE53AD3943B400FE4F53A0540E540D308
:08124C0094094003E4F540227F
:100F7F00D294D2A7E52190126593F580C2A7D2A68D
:100F8F00E4F580C2A6E521B408005044900FA2F802
:100F9F00282873020FBA020FBE020FC2020FC60239
:100FAF000FCA020FC2020FCE020FD7E5398012E52A
:100FBF003980177F108019E52D8006E52D800BE510
:100FCF002775F00A84FF8008E52775F00A84AFF0D3
:100FDF00D2A6EF90125493F580C2A60521E521D336
:0C0FEF0094074003E4F5217580FFC294D4
:010FFB0022D3
:100C5B00D294D2A7E52290126593F580C2A7D2A6B3
:100C6B00E4F580C2A6E522B408004003020CFE9016
:100C7B000C81F8282873020C99020CA3020CBA02FF
:100C8B000CD6020CE5020CE9020CED020CF6AE34AC
:100C9B00AF357C037DE8802CAE34AF357C037DE82B
:100CAB00120ABD7E007F64CFCDCFCECCCE8015AEE9
:100CBB0034AF357C007D64120ABD7E007F0ACFCD38
:100CCB00CFCECCCE120ABDAB078028AE34AF357C6D
:100CDB00007D0A120ABDAB058019E5328006E532AC
:100CEB00800BE53875F00A84FB8008E53875F00A4F
:100CFB0084ABF0D2A6EB90125493F580C2A60522DA
:0F0D0B00E522D394074003E4F5227580FFC294DC
:010D1A0022B6
:100FFC00D2A7E52390126593F580C2A7D2A6E4F59B
:10100C0080C2A6E523B40800504490101DF828288F
:10101C007302103502103902103D021041021045C6
:10102C0002103D021049021052E52A8012E52A8076
:10103C00177F108019E5418006E541800BE53B7573
:10104C00F00A84FF8008E53B75F00A84AFF0D2A665
:10105C00EF90125493F580C2A60523E523D3940791
:08106C004003E4F5237580FF49
:011074002259
:100D1B00D294D2A7E52490126593F580C2A7D2A6F0
:100D2B00E4F580C2A6E524B40800506B900D3EF8A4
:100D3B00282873020D56020D5A020D5E020D670232
:100D4B000D5A020D71020D7B020D95AF4080487F4D
:100D5B00108044E53A75F00A84FF803BE53A75F064
:100D6B000A84AFF08031AE3CAF3D7C007D648015D2
:100D7B00AE3CAF3D7C007D64120ABD7E007F0ACF86
:100D8B00CDCFCECCCE120ABD800DAE3CAF3D7C009C
:100D9B007D0A120ABDAF05D2A6EF90125493F580CF
:100DAB00C2A60524E524D394074003E4F5247580FB
:030DBB00FFC294E0
:010DBE002212
:10113C00E4FF20B2030F801720B4047F028010203C
:10114C00B6047F03800920B7047F048002E4FFE526
:10115C00251460101460101460152403701AEF60CD
:10116C0017052522052522EF600B0525F53E22EFFC
:08117C007006120B20E4F525BA
:011184002248
:100B2000E53E24FE603F147003020BB41470030210
:100B30000BF024036003020C5A0533E533B40102C1
:100B4000D202E533B40202C202E533B40302C202A8
:100B5000E533B40402C202E533D394055003020C1A
:100B60005AE4F53322E533B4010E0539E539D3945F
:100B7000174005E4F5390538E533B4020C052AE5DC
:100B80002AD394174003E4F52AE533B40302D201D3
:100B9000E53364046003020C5A0535E5357002053F
:100BA00034D394EAE53494075003020C5A753407A1
:100BB0007535E022E533B4010C052DE52DD3943BCA
:100BC0004003E4F52DE533B4020C0541E541D3942F
:100BD0003B4003E4F541E533B40302C201E533646D
:100BE0000470770532E532D3940C406E75320122E1
:100BF000E533B4010C0527E527D3943B4003E4F526
:100C000027E533B4020C053BE53BD3943B4003E4BA
:100C1000F53BE533B4030BC201E4F540F53AF53C8E
:100C2000F53DE53364047032053830001DE532B41B
:100C30000209E538D3941D4021801CE53290126CE6
:100C400093FFE538D39F4012800DE53290126C93EC
:0B0C5000FFE538D39F400375380122F8
:1011CE00E539652A702EE52D65417028E53BD394EF
:1011DE000040047F0180027F00EFB52702C2A212F9
:1011EE001345C3E527953BC3941E5002C2A2E53EAC
:0511FE006002D2A222F4
:10129C00854380D3E52994E8E52894034013E4F5CD
:1012AC0028F529E54370047543FE22E54325E0F556
:0212BC004322CB
:10134500853F80E531D394324006E4F531633FFFB4
:011355002275
:1012E000852B80E530D394324010E4F530AF2B7875
:0B12F00001EF08800123D8FDF52B2240
:1012FB00852C80E52FD394014010E4F52FAF2C788B
:0B130B0001EF08800103D8FDF52C2243
:0B136300EF1FAC0670011E4C70F6225C
:1012BE00D2977F057E00121363C2977F327E001293
:1012CE001363D2977F0E7E001213637F147E00028B
:0212DE00136398
:10133100C2970000D297A29792037F0A7E001213F0
:0313410063A203A1
:011344002286
:10131600E4FB121331E433FFC43333335480FEED60
:0A132600C3134EFD0BBB08EAAF0530
:01133000229A
:02127900AD07BF
:10127B00E4FBC29700ED1392977F067E0012136377
:10128B00D297EDC313FD0BBB08E87F067E0002135C
:01129B0063EF
:101185001212BE7FCC1212797FBE1212791213167B
:10119500AA071213167536008F37E537753700F530
:1011A50036AF02EF4237E4AC36AD37120A03E4FB43
:1011B500FA7920783F1208F8E4FBFAF9783F12082B
:0811C50007120A3C8E368F3739
:0111CD0022FF
:040E61008E088F095F
:100E6500D294D2A7E52690126593F580C2A7D2A6A3
:100E7500E4F580C2A6E52614601114602A240270E8
:100E850040AE08AF097C007D648015AE08AF097CD3
:100E9500007D64120ABD7E007F0ACFCDCFCECCCEB9
:100EA500120ABDAB07801AAE08AF097C007D64123B
:100EB5000ABD7E007F0ACFCDCFCECCCE120ABDAB08
:100EC50005E526B4010BD2A6EB901254934480801D
:100ED50007D2A6EB90125493F580C2A60526E52607
:0D0EE500D394034003E4F5267580FFC2940A
:010EF20022DD
:0D1356001212BE7FCC1212797F4402127970
:10080000020AA8E86480F8E933E83360110460F074
:10081000ED33EC337009E8FCE9FDEAFEEBFF22045E
:1008200060DED3EB9FEA9EE99DE8C2E78CF0C2F759
:1008300095F0400CE8CCF8E9CDF9EACEFAEBCFFB25
:10084000120A7385D0F05804700320D5B3E8047001
:10085000075002B2D5020AB292D5EC0460F7E4CC9C
:10086000C0E0C398F8603B94186008400DD0E0FBEE
:10087000020A8AE4FBFAC9FC8028E830E406E4C9ED
:10088000FBE4CAFCE830E305E4C9CACBFCE8540742
:100890006010F8C3E913F9EA13FAEB13FBEC13FC4D
:1008A000D8F130F52FC3E49CFCEF9BFFEE9AFEEDF0
:1008B00099FDD0E0FBEF4E4D4C701222DB03020A93
:1008C000AFEC2CFCEF33FFEE33FEED33FDED30E704
:1008D000EB020A8AEF2BFFEE3AFEED39FDD0E0FB8A
:1008E00050130BBB0003020AB2ED13FDEE13FEEF33
:0808F00013FFEC13FC020A8A5D
:1008F800EC4D6011E8497017ED33EC3304600DE4FA
:10090800FCFFFEFD22E933E8330470F8020AA8125E
:100918000A7358046009E4CC24815006285009025F
:100928000AB2284003020AAFC0E0EB4A7044B9801B
:1009380006D0E0FB020A9EEF4E701CBD8008EBFF5C
:10094800EAFEE9FD80EBE98DF0A4FEE5F00209E19D
:10095800E9CDF9EAFEEBFFEF89F0A4FCE5F0CE89DA
:10096800F0A42EFFE435F0CD89F0A42DFEE435F097
:100978008067EF4E7005BD80D780C3EF8BF0A4ACC5
:10098800F0EE8BF0A42CFCE435F0F8EF8AF0A42C00
:10099800E5F038FCE433CB8DF0A42CFCE5F03BF813
:1009A800EE8AF0A42CFCE5F038F8E433CF89F0A403
:1009B8002CFCE5F038CF3400CE89F0A42FFFE5F009
:1009C8003EFEE433C98DF0A42EFEE5F039CD8AF061
:1009D800A42FFFE5F03EFEE43DFD33D0E0FB5007D9
:1009E8000BBB000F020AB2EC2CFCEF33FFEE33FE18
:0609F800ED33FD020A8A46
:1009FE0075F020800E75F010800575F0087D007E74
:100A0E00007F003392D530D503120B12EC33401019
:100A1E00EF33FFEE33FEED33FDEC33FCD5F0ED227C
:0E0A2E00E5F0247EA2D513CC92E7CDCEFF22B8
:100A3C00EDD2E7CD33EC3392D524814006E4FFFEB2
:100A4C00FDFC22FCE4CFCECDCC24E0501174FF8011
:100A5C00EDC3CC13CCCD13CDCE13CECF13CF0470AE
:070A6C00F030D5DE020B1291
:100A7300E9D2E7C933E833F892D5EDD2E7CD33ECC9
:070A830033FC5002B2D52242
:100A8A00EC30E7100FBF000C0EBE00080DBD0004CD
:100A9A000BEB6014A2D5EB13FCED92E7FD2274FF79
:100AAA00FCFDFEFF22E480F8A2D574FF13FC7D80D2
:030ABA00E480EFE6
:100EFF00020DBFE493A3F8E493A34003F68001F23D
:100F0F0008DFF48029E493A3F85407240CC8C333F3
:100F1F00C4540F4420C8834004F456800146F6DFC2
:100F2F00E4800B0102040810204080901203E47E3D
:100F3F00019360BCA3FF543F30E509541FFEE493B7
:100F4F00A360010ECF54C025E060A840B8E493A37E
:100F5F00FAE493A3F8E493A3C8C582C8CAC583CAA9
:100F6F00F0A3C8C582C8CAC583CADFE9DEE780BE61
:01122B0000C2
:100ABD00BC000BBE0029EF8DF084FFADF022E4CC1D
:100ACD00F875F008EF2FFFEE33FEEC33FCEE9DECE6
:100ADD00984005FCEE9DFE0FD5F0E9E4CEFD22ED2C
:100AED00F8F5F0EE8420D21CFEADF075F008EF2F76
:100AFD00FFED33FD4007985006D5F0F222C398FD67
:050B0D000FD5F0EA2203
:0E0B1200C3E49FFFE49EFEE49DFDE49CFC22F4
:00000001FF
