:03000000020E4BA2
:0C0E4B00787FE4F6D8FD75813E020E921F
:10118B003F065B4F666D7D077F6F777C395E7971AC
:10119B0040FEFDFBF7EFDFBF7F1F1C1F1E1F1E1F37
:1011AB001F1E1F1E1FD4D4BED49FA9D4D4BED48E51
:1011BB009FD4D46A7E81A9BE77777E9F8E9F0009CC
:1011CB00030C0C0C1809030C0C0C1809030C0C0C5D
:0911DB000C0C09030C0C0C1800AB
:10127600C100C102C10101320C01291E012B050169
:101286003114013501013B01022D07E00121000166
:0E129600220001230001240001250001260092
:100ED700D2A2758901758CFC758A18D2AFD2A9D2B6
:100EE7008CE52AB40A06E4F52A1211E4E53C64010C
:100EF7007036F53CE52C1460121460141460161457
:100F0700601814601A2405701F8000120FDE801805
:100F17001210598013120D19800E120C5B800912E2
:100F2700122D120DBB12137F1212CD121351E52E83
:100F37005403700FAE2DAF2E7C017D90120ABDEDCC
:100F47004C700FAE2DAF2E7C007D64120ABDED4CA8
:0A0F57007004D200808BC200808776
:03000B000210D20E
:1010D200C0E0C0F0C083C082C0D075D000C000C0E4
:1010E20001C002C003C004C005C006C007758CFC65
:1010F200758A18200208053EE53E7002053D300162
:10110200080537E53770020536053C052A1211300D
:101112001212A5D007D006D005D004D003D002D039
:0E11220001D000D0D0D082D083D0F0D0E03207
:10113000E53E64E87004E53D6403704EF53DF53E20
:101140000527E527D3943B4041E4F5270529E52908
:10115000D3943B4035E4F5290532E532D39417406A
:1011600029E4F5320531E52B9011A393FFE531D346
:101170009F4017753101052BE52BD3940C400B755F
:0B1180002B01052EE52E7002052D222C
:1012A500E537B4E822E536B4031DE4F536F5370530
:1012B50033E533D3943B400FE4F5330539E539D3B2
:0812C50094094003E4F539220D
:100FDE00D294D2A7E52190119C93F580C2A7D2A6F8
:100FEE00E4F580C2A6E521B408005044901001F843
:100FFE0028287302101902101D021021021025025A
:10100E00102902102102102D021036E5328012E551
:10101E003280177F108019E5298006E529800BE5BF
:10102E002775F00A84FF8008E52775F00A84AFF073
:10103E00D2A6EF90118B93F580C2A60521E521D3A0
:0A104E0094074003E4F5217580FFCC
:011058002275
:100C5B00D294D2A7E52290119C93F580C2A7D2A67D
:100C6B00E4F580C2A6E522B408004003020CFE9016
:100C7B000C81F8282873020C99020CA3020CBA02FF
:100C8B000CD6020CE5020CE9020CED020CF6AE2DB3
:100C9B00AF2E7C037DE8802CAE2DAF2E7C037DE840
:100CAB00120ABD7E007F64CFCDCFCECCCE8015AEE9
:100CBB002DAF2E7C007D64120ABD7E007F0ACFCD46
:100CCB00CFCECCCE120ABDAB078028AE2DAF2E7C7B
:100CDB00007D0A120ABDAB058019E52B8006E52BBA
:100CEB00800BE53175F00A84FB8008E53175F00A5D
:100CFB0084ABF0D2A6EB90118B93F580C2A60522A4
:0D0D0B00E522D394074003E4F5227580FF34
:010D180022B8
:10105900D2A7E52390119C93F580C2A7D2A6E4F507
:1010690080C2A6E523B40800504490107AF82828D5
:101079007302109202109602109A02109E0210A298
:1010890002109A0210A60210AFE5288012E5288006
:10109900177F108019E53A8006E53A800BE534752B
:1010A900F00A84FF8008E53475F00A84AFF0D2A60F
:1010B900EF90118B93F580C2A60523E523D39407FE
:0810C9004003E4F5237580FFEC
:0110D10022FC
:100D1900D294D2A7E52490119C93F580C2A7D2A6BC
:100D2900E4F580C2A6E524B40800506B900D3CF8A8
:100D3900282873020D54020D58020D5C020D65023C
:100D49000D58020D6F020D79020D93AF3980487F5E
:100D5900108044E53375F00A84FF803BE53375F074
:100D69000A84AFF08031AE36AF377C007D648015E0
:100D7900AE36AF377C007D64120ABD7E007F0ACF94
:100D8900CDCFCECCCE120ABD800DAE36AF377C00AA
:100D99007D0A120ABDAF05D2A6EF90118B93F5809B
:100DA900C2A60524E524D394074003E4F5247580FD
:010DB900FF3A
:010DBA002216
:1011E400E4FF20B2030F801720B4047F0280102094
:1011F400B6047F03800920B7047F048002E4FFE57E
:10120400251460101460101460152403701AEF6024
:1012140017052522052522EF600B0525F53822EF59
:081224007006120B20E4F52511
:01122C00229F
:100B2000E53824FE603F147003020BB41470030216
:100B30000BF024036003020C5A052CE52CB40102CF
:100B4000D202E52CB40202C202E52CB40302C202B6
:100B5000E52CB40402C202E52CD394055003020C28
:100B60005AE4F52C22E52CB4010E0532E532D3947B
:100B7000174005E4F5320531E52CB4020C0528E5F3
:100B800028D394174003E4F528E52CB40302D201DE
:100B9000E52C64046003020C5A052EE52E70020554
:100BA0002DD394EAE52D94075003020C5A752D07B6
:100BB000752EE022E52CB4010C0529E529D3943BE0
:100BC0004003E4F529E52CB4020C053AE53AD39448
:100BD0003B4003E4F53AE52CB40302C201E52C6482
:100BE000047077052BE52BD3940C406E752B0122F6
:100BF000E52CB4010C0527E527D3943B4003E4F52D
:100C000027E52CB4020C0534E534D3943B4003E4CF
:100C1000F534E52CB4030BC201E4F539F533F536B0
:100C2000F537E52C64047032053130001DE52BB436
:100C30000209E531D3941D4021801CE52B9011A3BE
:100C400093FFE531D39F4012800DE52B9011A393C4
:0B0C5000FFE531D39F40037531012206
:1012CD00E532B5281EE529B53A19E527B53402C230
:1012DD00A2C3E5279534C3941E5002C2A2E538601F
:0412ED0002D2A22265
:0B138C00EF1FAC0670011E4C70F62233
:10131400D2977F057E0012138CC2977F327E001213
:10132400138CD2977F0E7E0012138C7F147E0002E2
:02133400138C18
:10136B00C2970000D297A29792037F0A7E001213B6
:03137B008CA2033E
:01137E00224C
:10133600E4FB12136BE433FFC43333335480FEED06
:0A134600C3134EFD0BBB08EAAF0510
:01135000227A
:0212F100AD0747
:1012F300E4FBC29700ED1392977F067E0012138CD6
:10130300D297EDC313FD0BBB08E87F067E000213E3
:011313008C4D
:10122D001213147FCC1212F17FBE1212F11213366B
:10123D00AA07121336752F008F30E530753000F583
:10124D002FAF02EF4230E4AC2FAD30120A03E4FBB6
:10125D00FA7920783F1208F8E4FBFAF9783F120882
:08126D0007120A3C8E2F8F309E
:011275002256
:040DBB008E088F0906
:100DBF00D294D2A7E52690119C93F580C2A7D2A614
:100DCF00E4F580C2A6E52614601114602A2402708F
:100DDF0040AE08AF097C007D648015AE08AF097C7A
:100DEF00007D64120ABD7E007F0ACFCDCFCECCCE60
:100DFF00120ABDAB07801AAE08AF097C007D6412E2
:100E0F000ABD7E007F0ACFCDCFCECCCE120ABDABAE
:100E1F0005E526B4010BD2A6EB90118B934480808D
:100E2F0007D2A6EB90118B93F580C2A60526E52677
:0B0E3F00D394034003E4F5267580FF08
:010E4A002285
:0D137F001213147FCC1212F17F440212F100
:100F6100E4FBFA74CA2BF58274113AF583E49370A9
:100F71000E74B02BF58274113AF583E493605DE44D
:100F8100F508F50974CA2BF58274113AF583E493D7
:100F910075F014A4FFC3E5099FE50895F0502FB241
:100FA100A2E4FFFE74B02BF58274113AF583E49349
:100FB10075F00384FDC3EF9DEE940050070FBF0051
:100FC100010E80E00509E50970BA050880B67FE8E1
:0C0FD1007E0312138C0BBB00010A80870A
:010FDD0022F1
:10135100E535B52B14E53BB5310FE529B41F0A126C
:0A1361000F617FE87E0312138C2257
:10080000020AA8E86480F8E933E83360110460F074
:10081000ED33EC337009E8FCE9FDEAFEEBFF22045E
:1008200060DED3EB9FEA9EE99DE8C2E78CF0C2F759
:1008300095F0400CE8CCF8E9CDF9EACEFAEBCFFB25
:10084000120A7385D0F05804700320D5B3E8047001
:10085000075002B2D5020AB292D5EC0460F7E4CC9C
:10086000C0E0C398F8603B94186008400DD0E0FBEE
:10087000020A8AE4FBFAC9FC8028E830E406E4C9ED
:10088000FBE4CAFCE830E305E4C9CACBFCE8540742
:100890006010F8C3E913F9EA13FAEB13FBEC13FC4D
:1008A000D8F130F52FC3E49CFCEF9BFFEE9AFEEDF0
:1008B00099FDD0E0FBEF4E4D4C701222DB03020A93
:1008C000AFEC2CFCEF33FFEE33FEED33FDED30E704
:1008D000EB020A8AEF2BFFEE3AFEED39FDD0E0FB8A
:1008E00050130BBB0003020AB2ED13FDEE13FEEF33
:0808F00013FFEC13FC020A8A5D
:1008F800EC4D6011E8497017ED33EC3304600DE4FA
:10090800FCFFFEFD22E933E8330470F8020AA8125E
:100918000A7358046009E4CC24815006285009025F
:100928000AB2284003020AAFC0E0EB4A7044B9801B
:1009380006D0E0FB020A9EEF4E701CBD8008EBFF5C
:10094800EAFEE9FD80EBE98DF0A4FEE5F00209E19D
:10095800E9CDF9EAFEEBFFEF89F0A4FCE5F0CE89DA
:10096800F0A42EFFE435F0CD89F0A42DFEE435F097
:100978008067EF4E7005BD80D780C3EF8BF0A4ACC5
:10098800F0EE8BF0A42CFCE435F0F8EF8AF0A42C00
:10099800E5F038FCE433CB8DF0A42CFCE5F03BF813
:1009A800EE8AF0A42CFCE5F038F8E433CF89F0A403
:1009B8002CFCE5F038CF3400CE89F0A42FFFE5F009
:1009C8003EFEE433C98DF0A42EFEE5F039CD8AF061
:1009D800A42FFFE5F03EFEE43DFD33D0E0FB5007D9
:1009E8000BBB000F020AB2EC2CFCEF33FFEE33FE18
:0609F800ED33FD020A8A46
:1009FE0075F020800E75F010800575F0087D007E74
:100A0E00007F003392D530D503120B12EC33401019
:100A1E00EF33FFEE33FEED33FDEC33FCD5F0ED227C
:0E0A2E00E5F0247EA2D513CC92E7CDCEFF22B8
:100A3C00EDD2E7CD33EC3392D524814006E4FFFEB2
:100A4C00FDFC22FCE4CFCECDCC24E0501174FF8011
:100A5C00EDC3CC13CCCD13CDCE13CECF13CF0470AE
:070A6C00F030D5DE020B1291
:100A7300E9D2E7C933E833F892D5EDD2E7CD33ECC9
:070A830033FC5002B2D52242
:100A8A00EC30E7100FBF000C0EBE00080DBD0004CD
:100A9A000BEB6014A2D5EB13FCED92E7FD2274FF79
:100AAA00FCFDFEFF22E480F8A2D574FF13FC7D80D2
:030ABA00E480EFE6
:100E5700020ED7E493A3F8E493A34003F68001F2CC
:100E670008DFF48029E493A3F85407240CC8C3339C
:100E7700C4540F4420C8834004F456800146F6DF6B
:100E8700E4800B0102040810204080901276E47E73
:100E9700019360BCA3FF543F30E509541FFEE49360
:100EA700A360010ECF54C025E060A840B8E493A327
:100EB700FAE493A3F8E493A3C8C582C8CAC583CA52
:100EC700F0A3C8C582C8CAC583CADFE9DEE780BE0A
:0112A4000049
:100ABD00BC000BBE0029EF8DF084FFADF022E4CC1D
:100ACD00F875F008EF2FFFEE33FEEC33FCEE9DECE6
:100ADD00984005FCEE9DFE0FD5F0E9E4CEFD22ED2C
:100AED00F8F5F0EE8420D21CFEADF075F008EF2F76
:100AFD00FFED33FD4007985006D5F0F222C398FD67
:050B0D000FD5F0EA2203
:0E0B1200C3E49FFFE49EFEE49DFDE49CFC22F4
:00000001FF
